:04000000B4EF00F069
:100008005782D9CF04F0DACF05F09DAA0EEF00F0A1
:1000180010EF00F035EF00F09EAA15EF00F017EF93
:1000280000F035EF00F0AECF08F02E0E0818D8A477
:1000380020EF00F022EF00F02CEF00F052C065F244
:100048000201666B000E526E010E646F35EF00F010
:10005800000E5224D96EDA6A020EDA2208C0DFFFD7
:10006800522A9DA83AEF00F03CEF00F05BEF00F059
:100078009EA841EF00F043EF00F05BEF00F0FF0EA9
:1000880002016525D96E010E6621DA6EDF50AD6E6C
:1000980065056611D8A453EF00F055EF00F058EF4E
:1000A80000F09D985BEF00F06507D8A066079EA05A
:1000B80060EF00F062EF00F0ADEF00F09DA067EF99
:1000C80000F069EF00F0ADEF00F0020E5418D8A46C
:1000D80070EF00F072EF00F0ADEF00F0551C066E07
:1000E800561C076ED4C102F0010E036E022A7FEF80
:1000F80000F0D8900336022E7DEF00F00350531223
:100108005350B8EC0CF0640E51648DEF00F08FEF93
:1001180000F094EF00F00101D44BD52B000E516E86
:10012800512A06C0CEFF07C0CFFF9E90060E0101E0
:10013800D419D511D8A4A3EF00F0A5EF00F0AEEFC5
:1001480000F0000E536ED469D569010E546EAEEFFF
:1001580000F09E9005C0DAFF04C0D9FF5792110045
:1001680027EF0DF0ECEC0EF044EC0AF0FAEC0EF090
:10017800DAEC0EF006EC0FF026EC0FF01DEC0FF0A9
:1001880021EEA7F010EE8FF0220EDBCFE3FFE8069A
:10019800FCE2D1C1F6F0D2C1F7F0D3C1F8F0000EFD
:1001A8000101A46F010EA36F000E546E000E020130
:1001B800736F060E0101A66FE4EF05F080EC0EF0F8
:1001C800D40E0001786F000E796F800E7A6FFF0EE3
:1001D8007B6FC2EC0DF0D40E0A6E000E0B6E010E92
:1001E80037EC0CF08C848C868B888C888C8A8C8C71
:1001F800000E0101A56F82A004EF01F006EF01F0E7
:1002080029EF01F0040E00018E6F400E8D6F260E4F
:10021800E82EFED78D2FFCD78E2FFAD700F082A0BC
:1002280018EF01F01AEF01F029EF01F00101A529FB
:10023800D8A421EF01F023EF01F025EF01F0000E23
:10024800A56FA52BA55180EC0CF080A42EEF01F032
:1002580030EF01F0FFEF00F0040E00018E6F400E4A
:100268008D6F260EE82EFED78D2FFCD78E2FFAD74E
:1002780000F080A442EF01F044EF01F0FFEF00F03E
:10028800DDEF00F0E4EF05F080EC0EF0E50E000184
:10029800786F000E796F980E7A6FFF0E7B6FC2EC45
:1002A8000DF0E50E0A6E000E0B6E010E37EC0CF029
:1002B80002016451D8B463EF01F065EF01F068EF13
:1002C80001F0000E646F9D8880A46DEF01F06FEF60
:1002D80001F05CEF01F0040E00018E6F400E8D6F8F
:1002E800260EE82EFED78D2FFCD78E2FFAD700F0DA
:1002F80080A481EF01F083EF01F05CEF01F0DDEF06
:1003080000F080EC0EF0000E0001786F010E796F9E
:100318004F0E7A6FFF0E7B6FC2EC0DF0000E0A6E67
:10032800010E0B6E010E37EC0CF049EC0EF0C09E7E
:10033800C250830B1409C26EC282C2B2A6EF01F08A
:10034800A8EF01F0A1EF01F0820EC464AEEF01F056
:10035800B0EF01F0B6EF01F08B82C450FF0ABE6E19
:10036800D3EF01F07D0EC460BCEF01F0BEEF01F0E9
:10037800C1EF01F08B92B1EF01F07D0EC464C7EFBD
:1003880001F0C9EF01F0D3EF01F0820EC460CFEFA6
:1003980001F0D1EF01F0D3EF01F0000EBE6E80A4A2
:1003A800D8EF01F0DAEF01F0A0EF01F0040E000140
:1003B8008E6F400E8D6F260EE82EFED78D2FFCD740
:1003C8008E2FFAD700F080A4ECEF01F0EEEF01F0E9
:1003D800A0EF01F0DDEF00F080EC0EF0110E00014F
:1003E800786F010E796FC80E7A6FFF0E7B6FC2ECC3
:1003F8000DF0110E0A6E010E0B6E010E37EC0CF0AB
:10040800C250830B1409C26EC282C2B20EEF02F050
:1004180010EF02F009EF02F0C350C4CF8DF00001D5
:100428008E6B8DC08EF08D6B8D1101019F6F000159
:100438008E510101A06FC250830B1009C26EC09E7D
:10044800C282C2B22AEF02F02CEF02F025EF02F0CE
:10045800C4CF9DF101019E6B030E00018E6F080E43
:100468008D6F770EE82EFED78D2FFCD78E2FFAD7FB
:100478009DC109F09EC10AF00B6A0C6A9FC10DF07C
:10048800A0C10EF00F6A106A5CEC0DF009C099F17A
:100498000AC09AF10BC09BF10CC09CF1EF0E000151
:1004A800786FFF0E796F99C17AF09AC17BF09BC182
:1004B8007CF09CC17DF0B3EC0EF0C08E80A467EF99
:1004C80002F069EF02F004EF02F0040E00018E6FF3
:1004D800400E8D6F260EE82EFED78D2FFCD78E2F5F
:1004E800FAD700F080A47BEF02F07DEF02F004EF72
:1004F80002F0DDEF00F080EC0EF0220E0001786FC4
:10050800010E796FB00E7A6FFF0E7B6FC2EC0DF0A3
:10051800220E0A6E010E0B6E010E37EC0CF0000E67
:100528000201746F040E2CEC0EF009C06FF20AC0C1
:1005380070F26FC28DF070C28EF00001D8908E33C9
:100548008D33D8908E338D33D8908E338D338D5133
:10055800FF0802016F6F00018E51D8A0E82A000839
:100568000201706F050E2CEC0EF009C071F20AC082
:1005780072F271C28DF072C28EF00001D8908E3383
:100588008D33D8908E338D33D8908E338D338DC084
:1005980071F28EC072F2410E02017425F66EF76A8E
:1005A800FE0EF7220800F5CF8DF000018D510201F3
:1005B8006F5D000E7059D8B0E4EF02F0E6EF02F07C
:1005C800FEEF02F0410E7425F66EF76AFE0EF72272
:1005D8007F0E0800F564F3EF02F0F5EF02F0FEEF8E
:1005E80002F06FC209F0B00E0DEC0EF00201742B90
:1005F8003EEF03F0410E7425F66EF76AFE0EF72201
:100608000800F55000018D6F8E6B020171510001D9
:100618008D5D0201725100018E59D8B016EF03F0BA
:1006280018EF03F02FEF03F0410E02017425F66E68
:10063800F76AFE0EF722800E0800F56026EF03F039
:1006480028EF03F02FEF03F071C209F0B00E0DECA4
:100658000EF0FAEF02F0410E02017425F66EF76A09
:10066800FE0EF7220800F5CF09F0B00E0DEC0EF0E3
:10067800FAEF02F0800E7419D8A445EF03F047EFA3
:1006880003F049EF03F0000E746F0D0E2CEC0EF022
:1006980009C0A1F10AC0A2F1F80E0001786FFF0E9F
:1006A800796FA1C17AF0A2C17BF0B3EC0EF00B0E0A
:1006B80000018D6F620EE82EFED78D2FFCD700F05B
:1006C80080A469EF03F06BEF03F096EF02F0040EDD
:1006D80000018E6F400E8D6F260EE82EFED78D2FEF
:1006E800FCD78E2FFAD700F080A47DEF03F07FEFC0
:1006F80003F096EF02F0DDEF00F0C250830B14090F
:10070800C26E18EF05F0550E786F010E796FC10EA5
:100718007A6FFE0E7B6FC2EC0DF0550E0A6E010E5D
:100728000B6E010E37EC0CF082A09DEF03F09FEFEB
:1007380003F0B4EF03F0F0EC0CF0190E15241B6E67
:10074800000E16201C6E030E1E6E1D68DFEC0BF0EB
:100758001BC06DF21CC06EF2020E546EE4EF05F081
:1007680080A4B9EF03F0BBEF03F0E4EF05F0040E4B
:1007780000018E6F400E8D6F260EE82EFED78D2F4E
:10078800FCD78E2FFAD700F080A4CDEF03F0CFEF7F
:1007980003F046EF01F0060E0101A66F040E546E39
:1007A800E4EF05F0F40E566E240E556E770E786F52
:1007B800010E796FFF0E7A6FFE0E7B6FC2EC0DF0A3
:1007C800770E0A6E010E0B6E010E37EC0CF0880ED8
:1007D8000001786F010E796F680E7A6FFF0E7B6FDC
:1007E800A3C17CF0A4C17DF0C2EC0DF0880E0A6EA6
:1007F800010E0B6E020E37EC0CF0520E00018E6FDC
:100808002B0E8D6F000EE82EFED78D2FFCD78E2F66
:10081800FAD700F0000E0101A46F010EA36F060EB7
:10082800A66F040E546EE4EF05F0C282C2B21FEF49
:1008380004F021EF04F01AEF04F0C45000018D6FAA
:10084800C35002016B6F8DC06CF2440E0001786FCB
:10085800010E796F360E7A6FFF0E7B6F6DC27CF0DA
:100868006EC27DF0C2EC0DF0440E0A6E010E0B6EE6
:10087800010E37EC0CF0330E0001786F010E796F22
:10088800E20E7A6FFE0E7B6F6BC27CF06CC27DF05D
:10089800C2EC0DF0330E0A6E010E0B6E020E37EC31
:1008A8000CF002016D516B1907E16E516C19D8A457
:1008B80060EF04F062EF04F0A6EF04F0010E676F3A
:1008C800000E686F000E696F000E6A6F6ABF7AEFDC
:1008D80004F06A510DE1400E675D0D0E6859030E74
:1008E8006959D8A07AEF04F07CEF04F07EEF04F0A9
:1008F80096EF04F0010E6727000E682369236A2328
:100908006ABF94EF04F06A510DE1400E675D0D0E69
:100918006859030E6959D8A094EF04F096EF04F0D3
:100928007EEF04F06D516B1907E16E516C19D8A474
:10093800A0EF04F0A2EF04F0E4EF05F0030E546E0C
:10094800E4EF05F080A4ABEF04F0ADEF04F046EF60
:1009580001F0040E00018E6F400E8D6F260EE82EFA
:10096800FED78D2FFCD78E2FFAD700F080A4BFEFCB
:1009780004F0C1EF04F046EF01F0CFEF03F0660E8C
:10098800786F010E796F1B0E7A6FFF0E7B6FC2ECCA
:100998000DF0660E0A6E010E0B6E010E37EC0CF0B0
:1009A80082A0D9EF04F0DBEF04F0FBEF04F00101C3
:1009B800A34BA42BD469D569000E536ED89056303A
:1009C80000018D6F5530556E8DC056F0F0EC0CF06F
:1009D80015C01BF016C01CF0030E1E6E1D68DFEC60
:1009E8000BF01BC06DF21CC06EF2B0EF03F080A4D8
:1009F80000EF05F002EF05F0E4EF05F0040E00014A
:100A08008E6F400E8D6F260EE82EFED78D2FFCD7E9
:100A18008E2FFAD700F080A414EF05F016EF05F03A
:100A280046EF01F0CFEF03F054508D6F8E6B8E516F
:100A3800000AD8B422EF05F0E4EF05F08D51000A62
:100A4800D8B487EF03F0010AD8B4D6EF03F0030A4D
:100A5800D8B419EF04F0010AD8B4C3EF04F0E4EFF6
:100A680005F0B20E786F000E796FDF0E7A6FFF0E09
:100A78007B6FF60E7C6F000E7D6F02017351050DC2
:100A88008F0EF32400017E6F000EF4207F6FC2ECFE
:100A98000DF0B20E0A6E000E0B6E010E37EC0CF064
:100AA800C30E0001786F000E796FE10E7A6FFF0EAA
:100AB8007B6F02017351050D050EF326000EF4221B
:100AC8008F0EF32400017C6F000EF4207D6FC2ECC2
:100AD8000DF0C30E0A6E000E0B6E020E37EC0CF012
:100AE800000E546E80A87BEF05F07DEF05F09FEFB8
:100AF80005F0050E02017319D8B485EF05F087EFEC
:100B080005F09FEF05F0040E00018E6F400E8D6F0B
:100B1800260EE82EFED78D2FFCD78E2FFAD700F0A1
:100B280080A899EF05F09BEF05F0E4EF05F00201CE
:100B3800732BE4EF05F082A0A4EF05F0A6EF05F013
:100B4800C7EF05F002017351D8B4ADEF05F0AFEF70
:100B580005F0C7EF05F0040E00018E6F400E8D6F93
:100B6800260EE82EFED78D2FFCD78E2FFAD700F051
:100B780082A0C1EF05F0C3EF05F0E4EF05F0020134
:100B88007307E4EF05F080A6CCEF05F0CEEF05F093
:100B980046EF01F0040E00018E6F400E8D6F260E99
:100BA800E82EFED78D2FFCD78E2FFAD700F080A61F
:100BB800E0EF05F0E2EF05F046EF01F073C2A6F1B1
:100BC8000101A65100018D6F8E6B8E51000AD8B4B9
:100BD800F0EF05F0E4EF05F08D51000AD8B4E2EF2C
:100BE80000F0010AD8B448EF01F0030AD8B485EF41
:100BF80001F0010AD8B4F0EF01F0070AD8B47FEF8A
:100C080002F0010AD8B481EF03F0030AD8B435EF33
:100C180005F0E4EF05F0B4EF00F047C0D9FF48C095
:100C2800DAFFDECFF6FFDDCFF7FF0800F550250A23
:100C3800D8A421EF06F023EF06F080EF07F047C0B5
:100C4800D9FF48C0DAFFDE2A000EDD22000E0101BE
:100C5800D96F000ED86FD8C14FF0D9C150F0DA69FA
:100C6800DB6947C0D9FF48C0DAFFDECFF6FFDDCF2A
:100C7800F7FF0800F550730AD8B445EF06F047EFC0
:100C880006F062EF06F047C0D9FF48C0DAFFDECFB2
:100C980009F0DDCF0AF0F40E0B6EFF0E0C6E000E9D
:100CA8000E6E030E0D6ED5EC09F009500A10D8A48B
:100CB80060EF06F062EF06F0ACEF06F047C0D9FF30
:100CC80048C0DAFFDECFF6FFDDCFF7FF0800F550AA
:100CD800730AD8B472EF06F074EF06F07BEF06F0F3
:100CE800000E0001696F030E686F80EF06F0000EBA
:100CF8000001696F010E686F47C0D9FF48C0DAFF6D
:100D08006851DE266951DD2249C0D9FF4AC0DAFFA1
:100D1800DFCF60F0020EDE26DFCF61F0000EDD22AD
:100D280060C0D9FF61C0DAFFDECF66F0DDCF67F0C3
:100D380045C013F046C014F066C015F067C016F041
:100D48009CEC08F013C045F014C046F09BEF07F088
:100D580047C0D9FF48C0DAFFDECFF6FFDDCFF7FF87
:100D68000800F550750AD8A4BCEF06F0BEEF06F0EF
:100D780000EF07F047C0D9FF48C0DAFFDE2A000EAF
:100D8800DD2249C0D9FF4AC0DAFFDFCF60F0020E8A
:100D9800DE26DFCF61F0000EDD2260C0D9FF61C022
:100DA800DAFFDECF62F0DDCF63F062C06AF063C0C5
:100DB8006BF000016C6B6D6B6E6B6F6B706B716BB6
:100DC80045C025F046C026F06AC027F06BC028F061
:100DD8006CC029F06DC02AF06EC02BF06FC02CF0EB
:100DE80070C02DF071C02EF09CEC07F025C045F0C6
:100DF80026C046F09BEF07F047C0D9FF48C0DAFF8E
:100E0800DECF09F0DDCF0AF0FC0E0B6EFF0E0C6E84
:100E1800000E0E6E020E0D6ED5EC09F009500A1088
:100E2800D8A419EF07F01BEF07F04AEF07F0020EFE
:100E380047C0D9FF48C0DAFFDE26000EDD2249C0D0
:100E4800D9FF4AC0DAFFDFCF60F0040EDE26DFCF1D
:100E580061F0000EDD2260C0D9FF61C0DAFFDECF8D
:100E680062F0DECF63F0DECF64F0DECF65F0000124
:100E780062516A6F63516B6F64516C6F65516D6F2E
:100E88006E6B6F6B706B716BE4EF06F047C0D9FF48
:100E980048C0DAFFDECFF6FFDDCFF7FF0800F550D8
:100EA800250AD8A45AEF07F05CEF07F073EF07F0B4
:100EB80047C0D9FF48C0DAFFDE2A000EDD22000E47
:100EC8000B6E250E0A6E45C00CF046C00DF019ECED
:100ED8000BF0000E466E010E456E9BEF07F047C003
:100EE800D9FF48C0DAFFDE2A000EDD22000E466E6A
:100EF800000E456E9BEF07F047C0D9FF48C0DAFFE8
:100F0800DECFF6FFDDCFF7FF0800F5500A6E0B6A5B
:100F180045C00CF046C00DF019EC0BF047C0D9FFE6
:100F280048C0DAFFDE2A000EDD226DEF07F012005E
:100F38000101DBBFA2EF07F0A4EF07F0A5EF07F070
:100F48004F92DBBFB2EF07F0DB5106E1DA05D8B00C
:100F5800B0EF07F0B2EF07F0B8EF07F0000E386E09
:100F6800010E376EBCEF07F0DAC137F0DBC138F09D
:100F7800D8C139F0D9C13AF027C03BF028C03CF0BD
:100F880029C03DF02AC03EF02BC03FF02CC040F0F5
:100F98002DC041F02EC042F0000E446E1F0E436E6D
:100FA800000EFB6F4EEF08F04306D8A04406DC0E97
:100FB8004324D96E010E4420DA6E3BC009F03CC0D0
:100FC8000AF03DC00BF03EC00CF03FC00DF040C031
:100FD8000EF041C00FF042C010F00A0E116E000E64
:100FE800126E000E136E000E146E000E156E000EBB
:100FF800166E000E176E000E186EB1EC0AF009C0DE
:101008002FF00AC030F00BC031F00CC032F00DC028
:1010180033F00EC034F00FC035F010C036F02F504A
:10102800300FDF6E3706D8A038063906D8A03A0642
:101038003BC009F03CC00AF03DC00BF03EC00CF0CC
:101048003FC00DF040C00EF041C00FF042C010F09C
:101058000A0E116E000E126E000E136E000E146E44
:10106800000E156E000E166E000E176E000E186E2E
:101078005DEC09F009C03BF00AC03CF00BC03DF044
:101088000CC03EF00DC03FF00EC040F00FC041F064
:1010980010C042F043504410D8B455EF08F057EF51
:1010A80008F087EF08F03B503C103D103E103F1011
:1010B800401041104210D8A464EF08F066EF08F021
:1010C800D8EF07F038BE73EF08F0385006E1370460
:1010D800D8B071EF08F073EF08F0D8EF07F03ABE18
:1010E8007EEF08F03A5008E13904D8A07EEF08F006
:1010F80080EF08F087EF08F04FB285EF08F087EF30
:1011080008F0D8EF07F025C01AF026C01BF0DC0E57
:1011180043241C6E010E44201D6E39C01EF03AC0D7
:101128001FF07EEC0BF01AC025F01BC026F0120051
:1011380021EECAF010EE18F0060EDBCFE3FFE8064A
:10114800FCE215C023F016C024F023502410D8A4C4
:10115800B0EF08F0B2EF08F0B6EF08F0180E236E03
:10116800000E246E23C009F024C00AF065EC0EF0CE
:1011780009C027F00AC028F0DAC125F0DBC126F043
:1011880026BEC9EF08F0CBEF08F0E0EF08F02750D3
:10119800255C2650800A176E2850800A1758D8A058
:1011A800D8EF08F0DAEF08F0DCEF08F0E0EF08F02D
:1011B80025C027F026C028F027C025F028C026F033
:1011C800D8C121F0D9C122F04FB0EDEF08F0EFEF10
:1011D80008F00CEF09F0FDEF08F0000E0B6E200E82
:1011E8000A6E13C00CF014C00DF019EC0BF0274A6E
:1011F800282A2150275C2850800A176E2250800A1E
:101208001758D8A00AEF09F00CEF09F0F1EF08F031
:10121800000E206E000E1F6E25EF09F023C0D9FFC7
:1012280024C0DAFFDF50176E17500A6E0B6A13C01E
:101238000CF014C00DF019EC0BF0234A242A1F4AB5
:10124800202A25501F5C2050800A176E2650800ADD
:101258001758D8A032EF09F034EF09F012EF09F06F
:101268004FA039EF09F03BEF09F058EF09F049EFCB
:1012780009F0000E0B6E200E0A6E13C00CF014C09D
:101288000DF019EC0BF0274A282A2150275C28502A
:10129800800A176E2250800A1758D8A056EF09F016
:1012A80058EF09F03DEF09F027C013F028C014F0FB
:1012B800120020EE19F0070EDE6AE806FDE2115072
:1012C8001210131014101510161017101810D8B487
:1012D80070EF09F072EF09F0C4EF09F0010E216E0A
:1012E80080EF09F0D89011361236133614361536B9
:1012F800163617361836212A18AE85EF09F087EF0B
:1013080009F076EF09F0D89019361A361B361C36D4
:101318001D361E361F3620361150095C12500A58E9
:1013280013500B5814500C5815500D5816500E5891
:1013380017500F5818501058D8A0A5EF09F0A7EF6C
:1013480009F0B8EF09F01150095E12500A5A13500B
:101358000B5A14500C5A15500D5A16500E5A175055
:101368000F5A1850105A1980D8901832173216325E
:1013780015321432133212321132212E87EF09F04E
:1013880019C009F01AC00AF01BC00BF01CC00CF001
:101398001DC00DF01EC00EF01FC00FF020C010F0D1
:1013A800120009C010F00AC011F00BC012F00CC0F6
:1013B80013F00D06D8A00E060D2806E10E28D8A4B5
:1013C800E8EF09F0EAEF09F0F7EF09F0000E0A6E0E
:1013D800000E096E43EF0AF0104A112A124A132A26
:1013E8000D06D8A00E0610C0F6FF11C0F7FF0800C2
:1013F800F5500009D8B403EF0AF005EF0AF031EF11
:101408000AF012C0F6FF13C0F7FF0800F5500009F4
:10141800D8B411EF0AF013EF0AF031EF0AF00D50CB
:101428000E10D8B41AEF0AF01CEF0AF031EF0AF0E8
:1014380010C0F6FF11C0F7FF0800F5CF0FF012C07B
:10144800F6FF13C0F7FF0800F5500F18D8B42FEFB8
:101458000AF031EF0AF0F0EF09F010C0F6FF11C002
:10146800F7FF0800F5CF0FF012C0F6FF13C0F7FF23
:101478000800F5500F5C096E0A6AD8A00A06120027
:101488000F013B913B9395809582929089806C5097
:10149800F00B08096C6E130E6E6E6C8A340E0A6EB1
:1014A800F20EE82EFED70A2EFCD76B806BB05FEFEA
:1014B8000AF061EF0AF05AEF0AF0A49E7C0EC7EC1E
:1014C8000EF0800EC7EC0EF0380EC7EC0EF0800E52
:1014D800C7EC0EF0390EC7EC0EF0800EC7EC0EF01C
:1014E800170EC7EC0EF0800EC7EC0EF07A0EC7ECA4
:1014F8000EF0800EC7EC0EF05E0EC7EC0EF0800EFC
:10150800C7EC0EF06B0EC7EC0EF0800EC7EC0EF0B9
:101518000C0EC7EC0EF0800EC7EC0EF0010EC7ECF7
:101528000EF0800EC7EC0EF0060EC7EC0EF0800E23
:10153800C7EC0EF0020EC7EC0EF06B846BB4A7EF8D
:101548000AF0A9EF0AF0A2EF0AF0340E0A6EF20EC2
:10155800E82EFED70A2EFCD71200115012101310D5
:1015680014101510161017101810D8B4BEEF0AF082
:10157800C0EF0AF008EF0BF0010E196ECEEF0AF07B
:10158800D8901136123613361436153616361736E5
:101598001836192A18AED3EF0AF0D5EF0AF0C4EFBF
:1015A8000AF01150095C12500A5813500B58145085
:1015B8000C5815500D5816500E5817500F581850F3
:1015C8001058D8A0EAEF0AF0ECEF0AF0FCEF0AF0A6
:1015D8001150095E12500A5A13500B5A14500C5AE3
:1015E80015500D5A16500E5A17500F5A1850105AB7
:1015F800D89018321732163215321432133212328A
:101608001132192ED5EF0AF009C009F00AC00AF004
:101618000BC00BF00CC00CF00DC00DF00EC00EF09E
:101628000FC00FF010C010F012000C500D10D8B4FD
:1016380020EF0BF022EF0BF02BEF0BF00C500D10FE
:10164800D8A429EF0BF02BEF0BF030EF0BF00A507A
:1016580012EC0FF07DEF0BF020EE09F00C50D926BC
:101668000D50DA22DE50DE10D8B43DEF0BF03FEF1C
:101678000BF05AEF0BF020EE09F00C50D9260D5064
:10168800DA2210EE03F00C50E1260D50E222DE5073
:10169800E65CE650800A126EDE50800A1258D8B016
:1016A80058EF0BF05AEF0BF07DEF0BF020EE03F044
:1016B8000C50D9260D50DA22DECF0EF0DDCF0FF018
:1016C8000CC0D9FF0DC0DAFFDECF10F0DDCF11F06E
:1016D8000E501024D96E0F501120DA6E0AC0DFFFA9
:1016E80020EE03F00C50D9260D50DA22DE2A000E27
:1016F800DD2212004FA083EF0BF085EF0BF08FEF88
:101708000BF01CC013F01DC014F01AC015F01BC05C
:1017180016F0EBEC0DF01FBE94EF0BF096EF0BF00C
:101728009CEF0BF01EC023F01FC024F0A0EF0BF0BD
:10173800000E246E000E236E000E226E000E216E27
:10174800B2EF0BF0000E0B6E200E0A6E1AC00CF0F2
:101758001BC00DF019EC0BF0214A222A2350215C02
:101768002250800A206E2450800A2058D8A0BFEF4B
:101778000BF0C1EF0BF0A6EF0BF04FB0C6EF0BF07C
:10178800C8EF0BF0D2EF0BF01CC013F01DC014F023
:101798001AC015F01BC016F0EBEC0DF01CC009F0D8
:1017A8001DC00AF065EC0EF0235009241A6E24506F
:1017B8000A201B6E1200000E206E1CBEE8EF0BF014
:1017C800E6EF0BF0EEEF0BF01B6C1C1ED8B01C2ADA
:1017D800010E206E1EBEF5EF0BF0F3EF0BF0F9EFE4
:1017E8000BF01D6C1E1ED8B01E2A1D501E10D8B43A
:1017F80000EF0CF002EF0CF026EF0CF0010E1F6E5C
:101808000AEF0CF0D8901D361E361F2A1EAE0FEFB9
:101818000CF011EF0CF006EF0CF01D501B5C1E5085
:101828001C58D8A01AEF0CF01CEF0CF020EF0CF0AD
:101838001D501B5E1E501C5AD8901E321D321F2E82
:1018480011EF0CF02050D8B42CEF0CF02EEF0CF068
:1018580032EF0CF01B6C1C1ED8B01C2A1BC01BF0EE
:101868001CC01CF012000C6E6B806BB03EEF0CF0CD
:1018780040EF0CF039EF0CF0A49E7C0EC7EC0EF094
:10188800800EC7EC0EF00C04D8A44DEF0CF04FEF0F
:101898000CF054EF0CF0800EC7EC0EF060EF0CF07B
:1018A800020E0C18D8A45BEF0CF05DEF0CF060EFA3
:1018B8000CF0C00EC7EC0EF0400EC7EC0EF0000E98
:1018C8000D6E0D500A24D96E000E0B20DA6EDF5013
:1018D800C7EC0EF00D2A0F0E0D6475EF0CF077EFC4
:1018E8000CF065EF0CF06B846BB47DEF0CF07FEFC0
:1018F8000CF078EF0CF01200096E09A086EF0CF0DE
:1019080089EF0CF08C848AEF0CF08C9409A28FEF8D
:101918000CF092EF0CF08C8693EF0CF08C9609A4E7
:1019280098EF0CF09BEF0CF08B889CEF0CF08B98E9
:1019380009A6A1EF0CF0A4EF0CF08C88A5EF0CF031
:101948008C9809A8AAEF0CF0ADEF0CF08C8AAEEFDA
:101958000CF08C9A09AAB3EF0CF0B6EF0CF08C8C53
:10196800B7EF0CF08C9C1200016E01A0BEEF0CF0DA
:10197800C1EF0CF08C84C2EF0CF08C9401A2C7EF7D
:101988000CF0CAEF0CF08C86CBEF0CF08C9601A40F
:10199800D0EF0CF0D3EF0CF08B88D4EF0CF08B98D1
:1019A80001A6D9EF0CF0DCEF0CF08C88DDEF0CF021
:1019B8008C9801A8E2EF0CF0E5EF0CF08C8AE6EFCA
:1019C8000CF08C9A01AAEBEF0CF0EEEF0CF08C8C7B
:1019D800EFEF0CF08C9C1200FCC109F0FDC10AF07D
:1019E800FEC10BF0FFC10CF02D0E0D6E7F0E0E6EBA
:1019F800950E0F6E4C0E106E5CEC0DF0010E092466
:101A08000101FC6F000E0A20FD6F000E0B20FE6F17
:101A1800000E0C20FF6FFCC117F0FDC118F0FEC1CD
:101A280019F0FFC11AF0120E1FEF0DF0D8901A32FC
:101A3800193218321732E82E1AEF0DF017C015F0C8
:101A480018C016F01200360EF66E1D0EF76E000E58
:101A5800F86E01EEA7F010EE2FF00900F5CFEEFFBB
:101A6800E550E150FAE1560EF66E1E0EF76E000EC6
:101A7800F86E0900F5CF55F00900F5CF56F002EEE3
:101A880000F0670EEE6AE806FDE101EED6F02A0ED8
:101A9800EE6AE806FDE1546A536A526A516A506A6E
:101AA8004F6A57905792000EF86E0001B6EF00F09B
:101AB800000E116E000E126E000E136E000E146EE4
:101AC80009A069EF0DF06BEF0DF073EF0DF00D50FD
:101AD80011260E5012220F50132210501422D890A3
:101AE8000D360E360F361036D8900C320B320A32BD
:101AF800093209500A100B100C10D8A486EF0DF00B
:101B080088EF0DF064EF0DF011C009F012C00AF073
:101B180013C00BF014C00CF0120074C04BF075C069
:101B28004CF0000E0101D76F000ED66FAFEF0DF02D
:101B380072C045F073C046F04B0E476E000E486EFB
:101B480076C049F077C04AF011EC06F04550010123
:101B5800D6274650D7234BC0F6FF4CC0F7FF0800E6
:101B6800F5500009D8A4BBEF0DF0BDEF0DF09CEFC8
:101B78000DF0D6C172F0D7C173F012007C0E0001CF
:101B8800806F000E816F78C082F079C083F0000EFC
:101B9800866F000E856F000E8C6F000E8B6F820EA5
:101BA800726F000E736F7AC074F07BC075F0800E90
:101BB800766F000E776F91EC0DF000018551782556
:101BC800D96E86517921DA6E000EDF6E1200000E92
:101BD800196E000E186EFCEF0DF017C00AF00B6AB4
:101BE80015C00CF016C00DF019EC0BF0184A192AA4
:101BF80018501324D96E19501420DA6EDF50176E5E
:101C08001750D8A40AEF0EF00CEF0EF0F1EF0DF01C
:101C180012000A6E8A9609380F0B0A100B6E0938E3
:101C2800F00B0C6E0BC0C9FF9EA61DEF0EF01FEF48
:101C38000EF018EF0EF09E960CC0C9FF9EA627EF77
:101C48000EF029EF0EF022EF0EF09E968A86120013
:101C58000D6E0DC00BF00B460B46C2500B18830BD4
:101C68000B18C26EC282C2B23CEF0EF03EEF0EF00D
:101C780037EF0EF0C4500B6EC3500E6E0BC00FF052
:101C88000EC009F00FC00AF012009484FC0E0F0178
:101C98004917C70EBB6E3F0EBD16BD50F00B0C09A1
:101CA800BD6E000EBE6EFC0EBA169E92BA849EA23F
:101CB80060EF0EF062EF0EF05BEF0EF094949492EA
:101CC800120009C00BF00AC00CF06DEF0EF0094AC3
:101CD8000A2A09C0D9FF0AC0DAFFDF50D8A477EF73
:101CE8000EF079EF0EF06BEF0EF00B50095C096EF9
:101CF8000C500A580A6E12006B806BB086EF0EF01B
:101D080088EF0EF081EF0EF0A49E7C0EC7EC0EF06B
:101D1800800EC7EC0EF0010EC7EC0EF06B846BB4AE
:101D280098EF0EF09AEF0EF093EF0EF01200475076
:101D3800494F00554152540050574D00004144430B
:101D48000000444143000048524100002020200088
:0D1D580000286E756C6C29002D3E00FFFF09
:101D66007A0E4D6E000E4E6E000E0001726F000E62
:101D7600736F78C074F079C075F04D0E766F000EF3
:101D8600776F91EC0DF01200096E09C06FFF6DB010
:101D9600CFEF0EF0D1EF0EF0CAEF0EF0A4AED6EFF5
:101DA6000EF0D8EF0EF0D1EF0EF0A49E12000F0148
:101DB600388B3C81398B928A9680938AC08EC0502C
:101DC600F80B0609C06EC050C70B3009C06EC28042
:101DD60012009594959694989598959A959C0F01CE
:101DE60038973895948092889286928412000F01D3
:101DF6003A9D3A9F949C948E190EAF6EAB8EAC981A
:101E0600AC8AAB8812009496949A93968A86C650AA
:101E1600F00B0209C66EC698C78CC68A1200096EF8
:101E26009EA818EF0FF01AEF0FF013EF0FF009C08E
:101E3600ADFF1200CD503F0B4009CD6E300ECD12D6
:101E4600CD809E9012009D8AF28CF28E9D801200AB
:021E560024F472
:10FE40000080868C92989EA5AAB0B6BCC1C6CBD0C5
:10FE5000D5DADEE2E6EAEDF0F3F5F8FAFBFDFEFEB8
:10FE6000FFFFFFFEFEFDFBFAF8F5F3F0EDEAE6E238
:10FE7000DEDAD5D0CBC6C1BCB6B0AAA59E98928C0E
:10FE8000868079736D67615A554F49433E39342FE7
:10FE90002A25211D1915120F0C0A0705040201015C
:10FEA0000000000101020405070A0C0F1215191DBC
:10FEB00021252A2F34393E43494F555A61676D73C6
:10FEC000794E6F7661206872613A42544E3120203B
:10FED0002020202020202020202020202020202022
:10FEE0002000616B7475616C6E693A257520202065
:10FEF00020202020202020202020202020200047FB
:10FF0000414D45204F5645522020202020202020C2
:10FF100020202020202020202020004E65787420E2
:10FF20006C6576656C3A2042544E312020202020AA
:10FF30002020202020006F746F63206E613A2575A9
:10FF400020202020202020202020202020200050A1
:10FF5000574D20706F6D6F636920504F54202020E3
:10FF600020202020202020006C6576656C3A20251A
:10FF7000752020202020202020202020202020004C
:10FF800042696E61726E692063697461632020202A
:10FF900020202020202020007A7072617661206E5F
:10FFA000616F70616B202020202020202020200005
:10FFB0006F72657A616E792073696E757320202087
:10FFC00020202020202020006E61736F62656E6902
:10FFD00020706F7420202020202020202020002549
:10FFE0007325732020202020202020202020002581
:10FFF0006C750A006C6C730025750D006C75000043
:020000040020DA
:08000000FFFFFFFFFFFFFFFF00
:020000040030CA
:0E000000FF731F3CFFBF85FF0FC00FE00F40D6
:00000001FF
