:04000000B4EF00F069
:100008005782D9CF04F0DACF05F09DAA0EEF00F0A1
:1000180010EF00F035EF00F09EAA15EF00F017EF93
:1000280000F035EF00F0AECF08F02E0E0818D8A477
:1000380020EF00F022EF00F02CEF00F052C065F244
:100048000201666B000E526E010E646F35EF00F010
:10005800000E5224D96EDA6A020EDA2208C0DFFFD7
:10006800522A9DA83AEF00F03CEF00F05BEF00F059
:100078009EA841EF00F043EF00F05BEF00F0FF0EA9
:1000880002016525D96E010E6621DA6EDF50AD6E6C
:1000980065056611D8A453EF00F055EF00F058EF4E
:1000A80000F09D985BEF00F06507D8A066079EA05A
:1000B80060EF00F062EF00F0ADEF00F09DA067EF99
:1000C80000F069EF00F0ADEF00F0020E5418D8A46C
:1000D80070EF00F072EF00F0ADEF00F0551C066E07
:1000E800561C076ED4C102F0010E036E022A7FEF80
:1000F80000F0D8900336022E7DEF00F00350531223
:100108005350BDEC0CF0640E51648DEF00F08FEF8E
:1001180000F094EF00F00101D44BD52B000E516E86
:10012800512A06C0CEFF07C0CFFF9E90060E0101E0
:10013800D419D511D8A4A3EF00F0A5EF00F0AEEFC5
:1001480000F0000E536ED469D569010E546EAEEFFF
:1001580000F09E9005C0DAFF04C0D9FF5792110045
:100168002CEF0DF0F1EC0EF049EC0AF0FFEC0EF07C
:10017800DFEC0EF00BEC0FF02BEC0FF022EC0FF095
:1001880021EEA7F010EE8FF0220EDBCFE3FFE8069A
:10019800FCE2D1C1F6F0D2C1F7F0D3C1F8F0000EFD
:1001A8000101A46F010EA36F000E546E000E020130
:1001B800736F060E0101A66FE9EF05F085EC0EF0EE
:1001C800D40E0001786F000E796F800E7A6FFF0EE3
:1001D8007B6FC7EC0DF0D40E0A6E000E0B6E010E8D
:1001E8003CEC0CF08C848C868B888C888C8A8C8C6C
:1001F800000E0101A56F82A004EF01F006EF01F0E7
:1002080029EF01F0040E00018E6F400E8D6F260E4F
:10021800E82EFED78D2FFCD78E2FFAD700F082A0BC
:1002280018EF01F01AEF01F029EF01F00101A529FB
:10023800D8A421EF01F023EF01F025EF01F0000E23
:10024800A56FA52BA55185EC0CF080A42EEF01F02D
:1002580030EF01F0FFEF00F0040E00018E6F400E4A
:100268008D6F260EE82EFED78D2FFCD78E2FFAD74E
:1002780000F080A442EF01F044EF01F0FFEF00F03E
:10028800DDEF00F0E9EF05F085EC0EF0E50E00017A
:10029800786F000E796F980E7A6FFF0E7B6FC7EC40
:1002A8000DF0E50E0A6E000E0B6E010E3CEC0CF024
:1002B80002016451D8B463EF01F065EF01F068EF13
:1002C80001F0000E646F9D8880A46DEF01F06FEF60
:1002D80001F05CEF01F0040E00018E6F400E8D6F8F
:1002E800260EE82EFED78D2FFCD78E2FFAD700F0DA
:1002F80080A481EF01F083EF01F05CEF01F0DDEF06
:1003080000F085EC0EF0000E0001786F010E796F99
:100318004F0E7A6FFF0E7B6FC7EC0DF0000E0A6E62
:10032800010E0B6E010E3CEC0CF04EEC0EF0C09E74
:10033800C250830B1409C26EC282C2B2A6EF01F08A
:10034800A8EF01F0A1EF01F0820EC464AEEF01F056
:10035800B0EF01F0B6EF01F08B82C450FF0ABE6E19
:10036800D3EF01F07D0EC460BCEF01F0BEEF01F0E9
:10037800C1EF01F08B92B1EF01F07D0EC464C7EFBD
:1003880001F0C9EF01F0D3EF01F0820EC460CFEFA6
:1003980001F0D1EF01F0D3EF01F0000EBE6E80A4A2
:1003A800D8EF01F0DAEF01F0A0EF01F0040E000140
:1003B8008E6F400E8D6F260EE82EFED78D2FFCD740
:1003C8008E2FFAD700F080A4ECEF01F0EEEF01F0E9
:1003D800A0EF01F0DDEF00F085EC0EF0110E00014A
:1003E800786F010E796FC80E7A6FFF0E7B6FC7ECBE
:1003F8000DF0110E0A6E010E0B6E010E3CEC0CF0A6
:10040800C250830B1409C26EC282C2B20EEF02F050
:1004180010EF02F009EF02F0C350C4CF8DF00001D5
:100428008E6B8DC08EF08D6B8D1101019F6F000159
:100438008E510101A06FC250830B1009C26EC09E7D
:10044800C282C2B22AEF02F02CEF02F025EF02F0CE
:10045800C4CF9DF101019E6B030E00018E6F080E43
:100468008D6F770EE82EFED78D2FFCD78E2FFAD7FB
:100478009DC109F09EC10AF00B6A0C6A9FC10DF07C
:10048800A0C10EF00F6A106A61EC0DF009C099F175
:100498000AC09AF10BC09BF10CC09CF1EF0E000151
:1004A800786FFF0E796F99C17AF09AC17BF09BC182
:1004B8007CF09CC17DF0B8EC0EF0C08E80A467EF94
:1004C80002F069EF02F004EF02F0040E00018E6FF3
:1004D800400E8D6F260EE82EFED78D2FFCD78E2F5F
:1004E800FAD700F080A47BEF02F07DEF02F004EF72
:1004F80002F0DDEF00F085EC0EF0220E0001786FBF
:10050800010E796FB00E7A6FFF0E7B6FC7EC0DF09E
:10051800220E0A6E010E0B6E010E3CEC0CF0000E62
:100528000201746F040E31EC0EF009C06FF20AC0BC
:1005380070F26FC28DF070C28EF00001D8908E33C9
:100548008D33D8908E338D33D8908E338D338D5133
:10055800FF0802016F6F00018E51D8A0E82A000839
:100568000201706F050E31EC0EF009C071F20AC07D
:1005780072F271C28DF072C28EF00001D8908E3383
:100588008D33D8908E338D33D8908E338D338DC084
:1005980071F28EC072F2410E02017425F66EF76A8E
:1005A800FE0EF7220800F5CF8DF000018D510201F3
:1005B8006F5D000E7059D8B0E4EF02F0E6EF02F07C
:1005C800FEEF02F0410E7425F66EF76AFE0EF72272
:1005D8007F0E0800F564F3EF02F0F5EF02F0FEEF8E
:1005E80002F06FC209F0B00E12EC0EF00201742B8B
:1005F8003EEF03F0410E7425F66EF76AFE0EF72201
:100608000800F55000018D6F8E6B020171510001D9
:100618008D5D0201725100018E59D8B016EF03F0BA
:1006280018EF03F02FEF03F0410E02017425F66E68
:10063800F76AFE0EF722800E0800F56026EF03F039
:1006480028EF03F02FEF03F071C209F0B00E12EC9F
:100658000EF0FAEF02F0410E02017425F66EF76A09
:10066800FE0EF7220800F5CF09F0B00E12EC0EF0DE
:10067800FAEF02F0800E7419D8A445EF03F047EFA3
:1006880003F049EF03F0000E746F0D0E31EC0EF01D
:1006980009C0A1F10AC0A2F1F80E0001786FFF0E9F
:1006A800796FA1C17AF0A2C17BF0B8EC0EF00B0E05
:1006B80000018D6F620EE82EFED78D2FFCD700F05B
:1006C80080A469EF03F06BEF03F096EF02F0040EDD
:1006D80000018E6F400E8D6F260EE82EFED78D2FEF
:1006E800FCD78E2FFAD700F080A47DEF03F07FEFC0
:1006F80003F096EF02F0DDEF00F0C250830B14090F
:10070800C26E1DEF05F0550E786F010E796FC10EA0
:100718007A6FFE0E7B6FC7EC0DF0550E0A6E010E58
:100728000B6E010E3CEC0CF082A09DEF03F09FEFE6
:1007380003F0B4EF03F0F5EC0CF0190E15241B6E62
:10074800000E16201C6E030E1E6E1D68E4EC0BF0E6
:100758001BC06DF21CC06EF2020E546EE9EF05F07C
:1007680080A4B9EF03F0BBEF03F0E9EF05F0040E46
:1007780000018E6F400E8D6F260EE82EFED78D2F4E
:10078800FCD78E2FFAD700F080A4CDEF03F0CFEF7F
:1007980003F046EF01F0060E0101A66F040E546E39
:1007A800E9EF05F0F40E566E240E556E770E786F4D
:1007B800010E796FFF0E7A6FFE0E7B6FC7EC0DF09E
:1007C800770E0A6E010E0B6E010E3CEC0CF0880ED3
:1007D8000001786F010E796F680E7A6FFF0E7B6FDC
:1007E800A3C17CF0A4C17DF0C7EC0DF0880E0A6EA1
:1007F800010E0B6E020E3CEC0CF0520E00018E6FD7
:100808002B0E8D6F000EE82EFED78D2FFCD78E2F66
:10081800FAD700F0000E0101A46F010EA36F060EB7
:10082800A66F040E546EE9EF05F0C282C2B21FEF44
:1008380004F021EF04F01AEF04F0C45000018D6FAA
:10084800C35002016B6F8DC06CF2440E0001786FCB
:10085800010E796F360E7A6FFF0E7B6F6DC27CF0DA
:100868006EC27DF0C7EC0DF0440E0A6E010E0B6EE1
:10087800010E3CEC0CF0330E0001786F010E796F1D
:10088800E20E7A6FFE0E7B6F6BC27CF06CC27DF05D
:10089800C7EC0DF0330E0A6E010E0B6E020E3CEC27
:1008A8000CF002016D516B1907E16E516C19D8A457
:1008B80060EF04F062EF04F0A6EF04F0010E676F3A
:1008C800000E686F000E696F000E6A6F6ABF7AEFDC
:1008D80004F06A510DE1400E675D0D0E6859030E74
:1008E8006959D8A07AEF04F07CEF04F07EEF04F0A9
:1008F80096EF04F0010E6727000E682369236A2328
:100908006ABF94EF04F06A510DE1400E675D0D0E69
:100918006859030E6959D8A094EF04F096EF04F0D3
:100928007EEF04F06D516B1907E16E516C19D8A474
:10093800A0EF04F0A2EF04F0E9EF05F0030E546E07
:10094800E9EF05F080A4ABEF04F0ADEF04F046EF5B
:1009580001F0040E00018E6F400E8D6F260EE82EFA
:10096800FED78D2FFCD78E2FFAD700F080A4BFEFCB
:1009780004F0C1EF04F046EF01F0CFEF03F085EC8F
:100988000EF0660E0001786F010E796F1B0E7A6FFC
:10099800FF0E7B6FC7EC0DF0660E0A6E010E0B6E34
:1009A800010E3CEC0CF082A0DCEF04F0DEEF04F06A
:1009B800FEEF04F00101A34BA42BD469D569000E06
:1009C800536ED890563000018D6F5530556E8DC0DE
:1009D80056F0F5EC0CF015C01BF016C01CF0030E19
:1009E8001E6E1D68E4EC0BF01BC06DF21CC06EF2AD
:1009F800B0EF03F080A403EF05F005EF05F0C5EFB5
:100A080004F0040E00018E6F400E8D6F260EE82E46
:100A1800FED78D2FFCD78E2FFAD700F080A417EFC2
:100A280005F019EF05F01BEF05F0CFEF03F0C5EF68
:100A380004F054508D6F8E6B8E51000AD8B427EF96
:100A480005F0E9EF05F08D51000AD8B487EF03F0FF
:100A5800010AD8B4D6EF03F0030AD8B419EF04F0AA
:100A6800010AD8B4C3EF04F0E9EF05F0B20E786FCD
:100A7800000E796FDF0E7A6FFF0E7B6FF60E7C6FBC
:100A8800000E7D6F02017351050D8F0EF3240001D6
:100A98007E6F000EF4207F6FC7EC0DF0B20E0A6E69
:100AA800000E0B6E010E3CEC0CF0C30E0001786FCB
:100AB800000E796FE10E7A6FFF0E7B6F02017351A2
:100AC800050D050EF326000EF4228F0EF324000107
:100AD8007C6F000EF4207D6FC7EC0DF0C30E0A6E1C
:100AE800000E0B6E020E3CEC0CF0000E546E80A84B
:100AF80080EF05F082EF05F0A4EF05F0050E020186
:100B08007319D8B48AEF05F08CEF05F0A4EF05F05F
:100B1800040E00018E6F400E8D6F260EE82EFED754
:100B28008D2FFCD78E2FFAD700F080A89EEF05F006
:100B3800A0EF05F0E9EF05F00201732BE9EF05F0EE
:100B480082A0A9EF05F0ABEF05F0CCEF05F00201AC
:100B58007351D8B4B2EF05F0B4EF05F0CCEF05F05F
:100B6800040E00018E6F400E8D6F260EE82EFED704
:100B78008D2FFCD78E2FFAD700F082A0C6EF05F094
:100B8800C8EF05F0E9EF05F002017307E9EF05F09A
:100B980080A6D1EF05F0D3EF05F046EF01F0040E83
:100BA80000018E6F400E8D6F260EE82EFED78D2F1A
:100BB800FCD78E2FFAD700F080A6E5EF05F0E7EF17
:100BC80005F046EF01F073C2A6F10101A65100013C
:100BD8008D6F8E6B8E51000AD8B4F5EF05F0E9EFF2
:100BE80005F08D51000AD8B4E2EF00F0010AD8B43C
:100BF80048EF01F0030AD8B485EF01F0010AD8B430
:100C0800F0EF01F0070AD8B47FEF02F0010AD8B478
:100C180081EF03F0030AD8B43AEF05F0E9EF05F0E5
:100C2800B4EF00F047C0D9FF48C0DAFFDECFF6FFC7
:100C3800DDCFF7FF0800F550250AD8A426EF06F007
:100C480028EF06F085EF07F047C0D9FF48C0DAFF64
:100C5800DE2A000EDD22000E0101D96F000ED86FCA
:100C6800D8C14FF0D9C150F0DA69DB6947C0D9FF64
:100C780048C0DAFFDECFF6FFDDCFF7FF0800F550FA
:100C8800730AD8B44AEF06F04CEF06F067EF06F0A7
:100C980047C0D9FF48C0DAFFDECF09F0DDCF0AF040
:100CA800F40E0B6EFF0E0C6E000E0E6E030E0D6E24
:100CB800DAEC09F009500A10D8A465EF06F067EFDE
:100CC80006F0B1EF06F047C0D9FF48C0DAFFDECF23
:100CD800F6FFDDCFF7FF0800F550730AD8B477EFB9
:100CE80006F079EF06F080EF06F0000E0001696F5C
:100CF800030E686F85EF06F0000E0001696F010EA4
:100D0800686F47C0D9FF48C0DAFF6851DE266951CD
:100D1800DD2249C0D9FF4AC0DAFFDFCF60F0020EFA
:100D2800DE26DFCF61F0000EDD2260C0D9FF61C092
:100D3800DAFFDECF66F0DDCF67F045C013F046C0BE
:100D480014F066C015F067C016F0A1EC08F013C0E7
:100D580045F014C046F0A0EF07F047C0D9FF48C0DF
:100D6800DAFFDECFF6FFDDCFF7FF0800F550750A92
:100D7800D8A4C1EF06F0C3EF06F005EF07F047C0AF
:100D8800D9FF48C0DAFFDE2A000EDD2249C0D9FFAC
:100D98004AC0DAFFDFCF60F0020EDE26DFCF61F057
:100DA800000EDD2260C0D9FF61C0DAFFDECF62F03D
:100DB800DDCF63F062C06AF063C06BF000016C6B5A
:100DC8006D6B6E6B6F6B706B716B45C025F046C0B9
:100DD80026F06AC027F06BC028F06CC029F06DC0FF
:100DE8002AF06EC02BF06FC02CF070C02DF071C0CF
:100DF8002EF0A1EC07F025C045F026C046F0A0EF84
:100E080007F047C0D9FF48C0DAFFDECF09F0DDCFD1
:100E18000AF0FC0E0B6EFF0E0C6E000E0E6E020E2C
:100E28000D6EDAEC09F009500A10D8A41EEF07F08D
:100E380020EF07F04FEF07F0020E47C0D9FF48C078
:100E4800DAFFDE26000EDD2249C0D9FF4AC0DAFFEC
:100E5800DFCF60F0040EDE26DFCF61F0000EDD226A
:100E680060C0D9FF61C0DAFFDECF62F0DECF63F089
:100E7800DECF64F0DECF65F0000162516A6F635126
:100E88006B6F64516C6F65516D6F6E6B6F6B706BD0
:100E9800716BE9EF06F047C0D9FF48C0DAFFDECF33
:100EA800F6FFDDCFF7FF0800F550250AD8A45FEF5D
:100EB80007F061EF07F078EF07F047C0D9FF48C0A7
:100EC800DAFFDE2A000EDD22000E0B6E250E0A6EFA
:100ED80045C00CF046C00DF01EEC0BF0000E466E3F
:100EE800010E456EA0EF07F047C0D9FF48C0DAFFF2
:100EF800DE2A000EDD22000E466E000E456EA0EFC3
:100F080007F047C0D9FF48C0DAFFDECFF6FFDDCFD4
:100F1800F7FF0800F5500A6E0B6A45C00CF046C092
:100F28000DF01EEC0BF047C0D9FF48C0DAFFDE2AEF
:100F3800000EDD2272EF07F012000101DBBFA7EF00
:100F480007F0A9EF07F0AAEF07F04F92DBBFB7EF62
:100F580007F0DB5106E1DA05D8B0B5EF07F0B7EFD7
:100F680007F0BDEF07F0000E386E010E376EC1EFC7
:100F780007F0DAC137F0DBC138F0D8C139F0D9C190
:100F88003AF027C03BF028C03CF029C03DF02AC009
:100F98003EF02BC03FF02CC040F02DC041F02EC0D9
:100FA80042F0000E446E1F0E436E000EFB6F53EFAF
:100FB80008F04306D8A04406DC0E4324D96E010E7F
:100FC8004420DA6E3BC009F03CC00AF03DC00BF08B
:100FD8003EC00CF03FC00DF040C00EF041C00FF015
:100FE80042C010F00A0E116E000E126E000E136E43
:100FF800000E146E000E156E000E166E000E176EA3
:10100800000E186EB6EC0AF009C02FF00AC030F0D6
:101018000BC031F00CC032F00DC033F00EC034F00C
:101028000FC035F010C036F02F50300FDF6E370686
:10103800D8A038063906D8A03A063BC009F03CC00B
:101048000AF03DC00BF03EC00CF03FC00DF040C0B0
:101058000EF041C00FF042C010F00A0E116E000EE3
:10106800126E000E136E000E146E000E156E000E3A
:10107800166E000E176E000E186E62EC09F009C0AD
:101088003BF00AC03CF00BC03DF00CC03EF00DC078
:101098003FF00EC040F00FC041F010C042F0435086
:1010A8004410D8B45AEF08F05CEF08F08CEF08F061
:1010B8003B503C103D103E103F1040104110421074
:1010C800D8A469EF08F06BEF08F0DDEF07F038BE41
:1010D80078EF08F0385006E13704D8B076EF08F01A
:1010E80078EF08F0DDEF07F03ABE83EF08F03A50EA
:1010F80008E13904D8A083EF08F085EF08F08CEFF9
:1011080008F04FB28AEF08F08CEF08F0DDEF07F037
:1011180025C01AF026C01BF0DC0E43241C6E010EFD
:1011280044201D6E39C01EF03AC01FF083EC0BF04E
:101138001AC025F01BC026F0120021EECAF010EEEE
:1011480018F0060EDBCFE3FFE806FCE215C023F03B
:1011580016C024F023502410D8A4B5EF08F0B7EF38
:1011680008F0BBEF08F0180E236E000E246E23C0A3
:1011780009F024C00AF06AEC0EF009C027F00AC092
:1011880028F0DAC125F0DBC126F026BECEEF08F044
:10119800D0EF08F0E5EF08F02750255C2650800ACC
:1011A800176E2850800A1758D8A0DDEF08F0DFEF37
:1011B80008F0E1EF08F0E5EF08F025C027F026C0B9
:1011C80028F027C025F028C026F0D8C121F0D9C1C1
:1011D80022F04FB0F2EF08F0F4EF08F011EF09F049
:1011E80002EF09F0000E0B6E200E0A6E13C00CF011
:1011F80014C00DF01EEC0BF0274A282A2150275C5A
:101208002850800A176E2250800A1758D8A00FEF6E
:1012180009F011EF09F0F6EF08F0000E206E000E4D
:101228001F6E2AEF09F023C0D9FF24C0DAFFDF5070
:10123800176E17500A6E0B6A13C00CF014C00DF02D
:101248001EEC0BF0234A242A1F4A202A25501F5C33
:101258002050800A176E2650800A1758D8A037EFFA
:1012680009F039EF09F017EF09F04FA03EEF09F048
:1012780040EF09F05DEF09F04EEF09F0000E0B6E3C
:10128800200E0A6E13C00CF014C00DF01EEC0BF00B
:10129800274A282A2150275C2850800A176E225096
:1012A800800A1758D8A05BEF09F05DEF09F042EF0C
:1012B80009F027C013F028C014F0120020EE19F02E
:1012C800070EDE6AE806FDE2115012101310141022
:1012D8001510161017101810D8B475EF09F077EF1D
:1012E80009F0C9EF09F0010E216E85EF09F0D890D9
:1012F8001136123613361436153616361736183692
:10130800212A18AE8AEF09F08CEF09F07BEF09F07B
:10131800D89019361A361B361C361D361E361F361F
:1013280020361150095C12500A5813500B581450AB
:101338000C5815500D5816500E5817500F58185075
:101348001058D8A0AAEF09F0ACEF09F0BDEF09F0EA
:101358001150095E12500A5A13500B5A14500C5A65
:1013680015500D5A16500E5A17500F5A1850105A39
:101378001980D890183217321632153214321332B7
:1013880012321132212E8CEF09F019C009F01AC05F
:101398000AF01BC00BF01CC00CF01DC00DF01EC0E5
:1013A8000EF01FC00FF020C010F0120009C010F09E
:1013B8000AC011F00BC012F00CC013F00D06D8A033
:1013C8000E060D2806E10E28D8A4EDEF09F0EFEF80
:1013D80009F0FCEF09F0000E0A6E000E096E48EFE6
:1013E8000AF0104A112A124A132A0D06D8A00E062E
:1013F80010C0F6FF11C0F7FF0800F5500009D8B477
:1014080008EF0AF00AEF0AF036EF0AF012C0F6FF0A
:1014180013C0F7FF0800F5500009D8B416EF0AF01A
:1014280018EF0AF036EF0AF00D500E10D8B41FEF7F
:101438000AF021EF0AF036EF0AF010C0F6FF11C0EB
:10144800F7FF0800F5CF0FF012C0F6FF13C0F7FF43
:101458000800F5500F18D8B434EF0AF036EF0AF048
:10146800F5EF09F010C0F6FF11C0F7FF0800F5CF3F
:101478000FF012C0F6FF13C0F7FF0800F5500F5C1D
:10148800096E0A6AD8A00A0612000F013B913B9325
:1014980095809582929089806C50F00B08096C6E4B
:1014A800130E6E6E6C8A340E0A6EF20EE82EFED79C
:1014B8000A2EFCD76B806BB064EF0AF066EF0AF077
:1014C8005FEF0AF0A49E7C0ECCEC0EF0800ECCEC04
:1014D8000EF0380ECCEC0EF0800ECCEC0EF0390E7F
:1014E800CCEC0EF0800ECCEC0EF0170ECCEC0EF01F
:1014F800800ECCEC0EF07A0ECCEC0EF0800ECCEC1C
:101508000EF05E0ECCEC0EF0800ECCEC0EF06B0EF6
:10151800CCEC0EF0800ECCEC0EF00C0ECCEC0EF0F9
:10152800800ECCEC0EF0010ECCEC0EF0800ECCEC64
:101538000EF0060ECCEC0EF0800ECCEC0EF0020E87
:10154800CCEC0EF06B846BB4ACEF0AF0AEEF0AF0A3
:10155800A7EF0AF0340E0A6EF20EE82EFED70A2E16
:10156800FCD7120011501210131014101510161079
:1015780017101810D8B4C3EF0AF0C5EF0AF00DEF32
:101588000BF0010E196ED3EF0AF0D890113612360F
:10159800133614361536163617361836192A18AE75
:1015A800D8EF0AF0DAEF0AF0C9EF0AF01150095C37
:1015B80012500A5813500B5814500C5815500D5807
:1015C80016500E5817500F5818501058D8A0EFEF53
:1015D8000AF0F1EF0AF001EF0BF01150095E12501A
:1015E8000A5A13500B5A14500C5A15500D5A1650CB
:1015F8000E5A17500F5A1850105AD89018321732DE
:10160800163215321432133212321132192EDAEF21
:101618000AF009C009F00AC00AF00BC00BF00CC0B0
:101628000CF00DC00DF00EC00EF00FC00FF010C082
:1016380010F012000C500D10D8B425EF0BF027EF66
:101648000BF030EF0BF00C500D10D8A42EEF0BF070
:1016580030EF0BF035EF0BF00A5017EC0FF082EF7C
:101668000BF020EE09F00C50D9260D50DA22DE508E
:10167800DE10D8B442EF0BF044EF0BF05FEF0BF045
:1016880020EE09F00C50D9260D50DA2210EE03F0A6
:101698000C50E1260D50E222DE50E65CE650800A4E
:1016A800126EDE50800A1258D8B05DEF0BF05FEF73
:1016B8000BF082EF0BF020EE03F00C50D9260D5002
:1016C800DA22DECF0EF0DDCF0FF00CC0D9FF0DC04F
:1016D800DAFFDECF10F0DDCF11F00E501024D96EF6
:1016E8000F501120DA6E0AC0DFFF20EE03F00C5015
:1016F800D9260D50DA22DE2A000EDD2212004FA074
:1017080088EF0BF08AEF0BF094EF0BF01CC013F08E
:101718001DC014F01AC015F01BC016F0F0EC0DF047
:101728001FBE99EF0BF09BEF0BF0A1EF0BF01EC063
:1017380023F01FC024F0A5EF0BF0000E246E000E5E
:10174800236E000E226E000E216EB7EF0BF0000E16
:101758000B6E200E0A6E1AC00CF01BC00DF01EECAA
:101768000BF0214A222A2350215C2250800A206E45
:101778002450800A2058D8A0C4EF0BF0C6EF0BF015
:10178800ABEF0BF04FB0CBEF0BF0CDEF0BF0D7EF8B
:101798000BF01CC013F01DC014F01AC015F01BC0CC
:1017A80016F0F0EC0DF01CC009F01DC00AF06AEC50
:1017B8000EF0235009241A6E24500A201B6E1200C2
:1017C800000E206E1CBEEDEF0BF0EBEF0BF0F3EF0D
:1017D8000BF01B6C1C1ED8B01C2A010E206E1EBEFE
:1017E800FAEF0BF0F8EF0BF0FEEF0BF01D6C1E1E7E
:1017F800D8B01E2A1D501E10D8B405EF0CF007EF04
:101808000CF02BEF0CF0010E1F6E0FEF0CF0D890C0
:101818001D361E361F2A1EAE14EF0CF016EF0CF004
:101828000BEF0CF01D501B5C1E501C58D8A01FEF6E
:101838000CF021EF0CF025EF0CF01D501B5E1E5034
:101848001C5AD8901E321D321F2E16EF0CF0205055
:10185800D8B431EF0CF033EF0CF037EF0CF01B6C11
:101868001C1ED8B01C2A1BC01BF01CC01CF0120088
:101878000C6E6B806BB043EF0CF045EF0CF03EEF55
:101888000CF0A49E7C0ECCEC0EF0800ECCEC0EF08E
:101898000C04D8A452EF0CF054EF0CF059EF0CF0F4
:1018A800800ECCEC0EF065EF0CF0020E0C18D8A4EC
:1018B80060EF0CF062EF0CF065EF0CF0C00ECCECB2
:1018C8000EF0400ECCEC0EF0000E0D6E0D500A24FA
:1018D800D96E000E0B20DA6EDF50CCEC0EF00D2A1C
:1018E8000F0E0D647AEF0CF07CEF0CF06AEF0CF041
:1018F8006B846BB482EF0CF084EF0CF07DEF0CF08E
:101908001200096E09A08BEF0CF08EEF0CF08C849E
:101918008FEF0CF08C9409A294EF0CF097EF0CF079
:101928008C8698EF0CF08C9609A49DEF0CF0A0EF34
:101938000CF08B88A1EF0CF08B9809A6A6EF0CF0A1
:10194800A9EF0CF08C88AAEF0CF08C9809A8AFEFDF
:101958000CF0B2EF0CF08C8AB3EF0CF08C9A09AA59
:10196800B8EF0CF0BBEF0CF08C8CBCEF0CF08C9C3F
:101978001200016E01A0C3EF0CF0C6EF0CF08C84CE
:10198800C7EF0CF08C9401A2CCEF0CF0CFEF0CF069
:101998008C86D0EF0CF08C9601A4D5EF0CF0D8EF24
:1019A8000CF08B88D9EF0CF08B9801A6DEEF0CF0C9
:1019B800E1EF0CF08C88E2EF0CF08C9801A8E7EFCF
:1019C8000CF0EAEF0CF08C8AEBEF0CF08C9A01AA81
:1019D800F0EF0CF0F3EF0CF08C8CF4EF0CF08C9C27
:1019E8001200FCC109F0FDC10AF0FEC10BF0FFC1F5
:1019F8000CF02D0E0D6E7F0E0E6E950E0F6E4C0EAA
:101A0800106E61EC0DF0010E09240101FC6F000E4F
:101A18000A20FD6F000E0B20FE6F000E0C20FF6FDA
:101A2800FCC117F0FDC118F0FEC119F0FFC11AF092
:101A3800120E24EF0DF0D8901A32193218321732DC
:101A4800E82E1FEF0DF017C015F018C016F01200A1
:101A5800400EF66E1D0EF76E000EF86E01EEA7F042
:101A680010EE2FF00900F5CFEEFFE550E150FAE156
:101A7800600EF66E1E0EF76E000EF86E0900F5CFBA
:101A880055F00900F5CF56F002EE00F0670EEE6A49
:101A9800E806FDE101EED6F02A0EEE6AE806FDE161
:101AA800546A536A526A516A506A4F6A57905792F9
:101AB800000EF86E0001B6EF00F0000E116E000E79
:101AC800126E000E136E000E146E09A06EEF0DF06C
:101AD80070EF0DF078EF0DF00D5011260E50122218
:101AE8000F50132210501422D8900D360E360F3690
:101AF8001036D8900C320B320A32093209500A10CB
:101B08000B100C10D8A48BEF0DF08DEF0DF069EFD2
:101B18000DF011C009F012C00AF013C00BF014C088
:101B28000CF0120074C04BF075C04CF0000E0101AF
:101B3800D76F000ED66FB4EF0DF072C045F073C0CA
:101B480046F04B0E476E000E486E76C049F077C0DF
:101B58004AF016EC06F045500101D6274650D72327
:101B68004BC0F6FF4CC0F7FF0800F5500009D8A499
:101B7800C0EF0DF0C2EF0DF0A1EF0DF0D6C172F07D
:101B8800D7C173F012007C0E0001806F000E816FC8
:101B980078C082F079C083F0000E866F000E856FE2
:101BA800000E8C6F000E8B6F820E726F000E736FBB
:101BB8007AC074F07BC075F0800E766F000E776F78
:101BC80096EC0DF0000185517825D96E8651792162
:101BD800DA6E000EDF6E1200000E196E000E186E1F
:101BE80001EF0EF017C00AF00B6A15C00CF016C012
:101BF8000DF01EEC0BF0184A192A18501324D96E50
:101C080019501420DA6EDF50176E1750D8A40FEF52
:101C18000EF011EF0EF0F6EF0DF012000A6E8A9634
:101C280009380F0B0A100B6E0938F00B0C6E0BC03D
:101C3800C9FF9EA622EF0EF024EF0EF01DEF0EF066
:101C48009E960CC0C9FF9EA62CEF0EF02EEF0EF04C
:101C580027EF0EF09E968A8612000D6E0DC00BF0CF
:101C68000B460B46C2500B18830B0B18C26EC28270
:101C7800C2B241EF0EF043EF0EF03CEF0EF0C4504D
:101C88000B6EC3500E6E0BC00FF00EC009F00FC0E4
:101C98000AF012009484FC0E0F014917C70EBB6EA0
:101CA8003F0EBD16BD50F00B0C09BD6E000EBE6E8A
:101CB800FC0EBA169E92BA849EA265EF0EF067EFEC
:101CC8000EF060EF0EF094949492120009C00BF09D
:101CD8000AC00CF072EF0EF0094A0A2A09C0D9FFAF
:101CE8000AC0DAFFDF50D8A47CEF0EF07EEF0EF0CA
:101CF80070EF0EF00B50095C096E0C500A580A6E12
:101D080012006B806BB08BEF0EF08DEF0EF086EF4C
:101D18000EF0A49E7C0ECCEC0EF0800ECCEC0EF0F7
:101D2800010ECCEC0EF06B846BB49DEF0EF09FEFC0
:101D38000EF098EF0EF012004750494F00554152EF
:101D4800540050574D0000414443000044414300B3
:101D58000048524100002020200000286E756C6C5D
:071D680029002D3E00FFFFE2
:101D70007A0E4D6E000E4E6E000E0001726F000E58
:101D8000736F78C074F079C075F04D0E766F000EE9
:101D9000776F96EC0DF01200096E09C06FFF6DB001
:101DA000D4EF0EF0D6EF0EF0CFEF0EF0A4AEDBEFD7
:101DB0000EF0DDEF0EF0D6EF0EF0A49E12000F0134
:101DC000388B3C81398B928A9680938AC08EC05022
:101DD000F80B0609C06EC050C70B3009C06EC28038
:101DE00012009594959694989598959A959C0F01C4
:101DF00038973895948092889286928412000F01C9
:101E00003A9D3A9F949C948E190EAF6EAB8EAC980F
:101E1000AC8AAB8812009496949A93968A86C650A0
:101E2000F00B0209C66EC698C78CC68A1200096EEE
:101E30009EA81DEF0FF01FEF0FF018EF0FF009C075
:101E4000ADFF1200CD503F0B4009CD6E300ECD12CC
:101E5000CD809E9012009D8AF28CF28E9D801200A1
:021E600024F468
:10FE40000080868C92989EA5AAB0B6BCC1C6CBD0C5
:10FE5000D5DADEE2E6EAEDF0F3F5F8FAFBFDFEFEB8
:10FE6000FFFFFFFEFEFDFBFAF8F5F3F0EDEAE6E238
:10FE7000DEDAD5D0CBC6C1BCB6B0AAA59E98928C0E
:10FE8000868079736D67615A554F49433E39342FE7
:10FE90002A25211D1915120F0C0A0705040201015C
:10FEA0000000000101020405070A0C0F1215191DBC
:10FEB00021252A2F34393E43494F555A61676D73C6
:10FEC000794E6F7661206872613A42544E3120203B
:10FED0002020202020202020202020202020202022
:10FEE0002000616B7475616C6E693A257520202065
:10FEF00020202020202020202020202020200047FB
:10FF0000414D45204F5645522020202020202020C2
:10FF100020202020202020202020004E65787420E2
:10FF20006C6576656C3A2042544E312020202020AA
:10FF30002020202020006F746F63206E613A2575A9
:10FF400020202020202020202020202020200050A1
:10FF5000574D20706F6D6F636920504F54202020E3
:10FF600020202020202020006C6576656C3A20251A
:10FF7000752020202020202020202020202020004C
:10FF800042696E61726E692063697461632020202A
:10FF900020202020202020007A7072617661206E5F
:10FFA000616F70616B202020202020202020200005
:10FFB0006F72657A616E792073696E757320202087
:10FFC00020202020202020006E61736F62656E6902
:10FFD00020706F7420202020202020202020002549
:10FFE0007325732020202020202020202020002581
:10FFF0006C750A006C6C730025750D006C75000043
:020000040020DA
:08000000FFFFFFFFFFFFFFFF00
:020000040030CA
:0E000000FF731F3CFFBF85FF0FC00FE00F40D6
:00000001FF
