:0400000059EF00F0C4
:1000080059829EA00AEF00F00CEF00F056EF00F0C6
:100018009DA011EF00F013EF00F056EF00F0020E74
:100028005818D8A41AEF00F01CEF00F056EF00F0B3
:10003800551C046E561C056E53C002F0010E036E6B
:10004800022A29EF00F0D8900336022E27EF00F09D
:1000580003505712575025EC0EF0640E0001F3655B
:1000680038EF00F03AEF00F03EEF00F0534A542A20
:10007800000EF36FF32B04C0CEFF05C0CFFF9E9098
:10008800060E53185410D8A44CEF00F04EEF00F0B1
:1000980057EF00F0000E576E53685468010E586E03
:0E00A80057EF00F09E905992110023EF0FF0D9
:10100000004E6F7661206872613A42544E31202062
:1010100020202020202020202020202020202020D0
:101020002000616B7475616C6E693A257520202013
:101030002020202020202020202020202020004EA2
:101040006F7661206872613A2042544E3120202030
:1010500020202020202020202020200047414D4516
:10106000204F5645522020202020202020202020C4
:1010700020202020202020004E657874206C65768A
:10108000656C3A2042544E31202020202020202020
:101090002020006F746F63206E613A257520202038
:0D10A00020202020202020202020200000E3
:1010AE0094809594959694989598959A959C8C94F1
:1010BE008C968B988C988C9A8C9CE7EC0BF00F018D
:1010CE003C81C08EC050F80B0609C06EC050C70BD5
:1010DE003009C06EC280C250830B1409C26ECD504F
:1010EE003F0B4009CD6E300ECD12F28CF28E9D80EC
:1010FE009E90CD80000E586E84EF09F09F0E686FA3
:10110E00000E696F010E6A6F100E6B6FFAEC0EF027
:10111E009F0E076E000E086E010EDCEC0DF082A025
:10112E009BEF08F09DEF08F084EF09F0000E000130
:10113E00EA6F0A0EE96F020E586E84EF09F0F40E94
:10114E00566E240E556EC10E686F000E696F5C0EE2
:10115E006A6F100E6B6FFAEC0EF0C10E076E000E7A
:10116E00086E010EDCEC0DF0D20E0001686F000E61
:10117E00696F3F0E6A6F100E6B6FFAEC0EF0D20EA7
:10118E00076E000E086E020EDCEC0DF082A0D2EFA0
:10119E0008F0D4EF08F084EF09F05DEC0EF012C009
:1011AE0018F013C019F0030E1B6E1A6884EC0DF0C4
:1011BE0018C0E9F019C0EAF0020E586E84EF09F07B
:1011CE00C282C2B2EDEF08F0EFEF08F0E8EF08F0E0
:1011DE00C45000017B6FC350E76F7BC0E8F08E0EEA
:1011EE00686F000E696F930E6A6F100E6B6FE9C019
:1011FE006CF0EAC06DF0FAEC0EF08E0E076E000E7B
:10120E00086E010EDCEC0DF07D0E0001686F000E15
:10121E00696F220E6A6F100E6B6FE7C06CF0E8C03C
:10122E006DF0FAEC0EF07D0E076E000E086E020EDB
:10123E00DCEC0DF00001E951E71907E1EA51E8197C
:10124E00D8A42CEF09F02EEF09F084EF09F0010E6F
:10125E00E36F000EE46F000EE56F000EE66F010EF9
:10126E00E327000EE423E523E623E6BF4CEF09F067
:10127E00E6510DE1400EE35D0D0EE459030EE55906
:10128E00D8A04CEF09F04EEF09F036EF09F0E95116
:10129E00E71907E1EA51E819D8A458EF09F05AEF17
:1012AE0009F084EF09F0030E586E84EF09F0B00ECA
:1012BE00686F000E696F780E6A6F100E6B6FFAEC26
:1012CE000EF0B00E076E000E086E010EDCEC0DF087
:1012DE0082A074EF09F076EF09F084EF09F05368FD
:1012EE005468000E576ED890563000017B6F553003
:1012FE00556E7BC056F0D4EF08F0585000017B6F4E
:10130E007C6B7C51000AD8B48FEF09F084EF09F0A2
:10131E007B51000AD8B485EF08F0010AD8B4A6EFC5
:10132E0008F0030AD8B4E7EF08F0010AD8B45EEF6C
:10133E0009F084EF09F059EF00F00001F0BFAAEFB9
:10134E0009F0ACEF09F0ADEF09F0F193F0BFBAEF91
:10135E0009F0F05106E1EF05D8B0B8EF09F0BAEF99
:10136E0009F0C0EF09F0000E346E010E336EC4EFBB
:10137E0009F0EFC033F0F0C034F0EDC035F0EEC040
:10138E0036F023C037F024C038F025C039F026C01F
:10139E003AF027C03BF028C03CF029C03DF02AC0EF
:1013AE003EF0000E406E1F0E3F6E000E01011F6FCD
:1013BE0057EF0AF03F06D8A04006000E3F24D96E24
:1013CE00010E4020DA6E37C006F038C007F039C083
:1013DE0008F03AC009F03BC00AF03CC00BF03DC02B
:1013EE000CF03EC00DF00A0E0E6E000E0F6E000ECB
:1013FE00106E000E116E000E126E000E136E000EA9
:10140E00146E000E156E54EC0CF006C02BF007C0D7
:10141E002CF008C02DF009C02EF00AC02FF00BC022
:10142E0030F00CC031F00DC032F02B50300FDF6EAB
:10143E003306D8A034063506D8A0360637C006F0D7
:10144E0038C007F039C008F03AC009F03BC00AF0C6
:10145E003CC00BF03DC00CF03EC00DF00A0E0E6EFF
:10146E00000E0F6E000E106E000E116E000E126E3C
:10147E00000E136E000E146E000E156E6FEC0BF058
:10148E0006C037F007C038F008C039F009C03AF08E
:10149E000AC03BF00BC03CF00CC03DF00DC03EF05E
:1014AE003F504010D8B45EEF0AF060EF0AF091EFB3
:1014BE000AF03750381039103A103B103C103D10DE
:1014CE003E10D8A46DEF0AF06FEF0AF0E1EF09F0CD
:1014DE0034BE7CEF0AF0345006E13304D8B07AEF14
:1014EE000AF07CEF0AF0E1EF09F036BE87EF0AF062
:1014FE00365008E13504D8A087EF0AF089EF0AF0DC
:10150E0091EF0AF00001F1B38FEF0AF091EF0AF0BC
:10151E00E1EF09F021C016F022C017F0000E3F24B3
:10152E00186E010E4020196E35C01AF036C01BF031
:10153E0021EC0DF016C021F017C022F0120043C0AE
:10154E00D9FF44C0DAFFDECFF6FFDDCFF7FF08008C
:10155E00F550250AD8A4B6EF0AF0B8EF0AF053EF0B
:10156E000BF043C0D9FF44C0DAFFDE2A000EDD22A5
:10157E00000E0001EE6F000EED6FEDC0F1F0EEC04B
:10158E00F2F0EF69F06943C0D9FF44C0DAFFDECF55
:10159E00F6FFDDCFF7FF0800F550750AD8A4DAEF95
:1015AE000AF0DCEF0AF01DEF0BF043C0D9FF44C088
:1015BE00DAFFDE2A000EDD2245C0D9FF46C0DAFF73
:1015CE00DFCF47F0020EDE26DFCF48F0000EDD2221
:1015DE0047C0D9FF48C0DAFFDECF49F0DDCF4AF071
:1015EE0049C04BF04AC04CF04D6A4E6A4F6A506A81
:1015FE00516A526A41C021F042C022F04BC023F022
:10160E004CC024F04DC025F04EC026F04FC027F040
:10161E0050C028F051C029F052C02AF0A4EC09F0B5
:10162E0021C041F022C042F06EEF0BF043C0D9FF53
:10163E0044C0DAFFDECFF6FFDDCFF7FF0800F5502E
:10164E00250AD8A42DEF0BF02FEF0BF046EF0BF081
:10165E0043C0D9FF44C0DAFFDE2A000EDD22000EA1
:10166E00076E250E066E41C008F042C009F0BCECB4
:10167E000CF0000E426E010E416E6EEF0BF043C089
:10168E00D9FF44C0DAFFDE2A000EDD22000E426EC4
:10169E00000E416E6EEF0BF043C0D9FF44C0DAFF6F
:1016AE00DECFF6FFDDCFF7FF0800F550066E076AB6
:1016BE0041C008F042C009F0BCEC0CF043C0D9FFA9
:1016CE0044C0DAFFDE2A000EDD2240EF0BF01200DE
:1016DE0020EE16F0070EDE6AE806FDE20E500F1041
:1016EE00101011101210131014101510D8B482EF20
:1016FE000BF084EF0BF0D6EF0BF0010E1E6E92EF97
:10170E000BF0D8900E360F361036113612361336C1
:10171E00143615361E2A15AE97EF0BF099EF0BF017
:10172E0088EF0BF0D89016361736183619361A364B
:10173E001B361C361D360E50065C0F5007581050C7
:10174E0008581150095812500A5813500B5814507B
:10175E000C5815500D58D8A0B7EF0BF0B9EF0BF091
:10176E00CAEF0BF00E50065E0F50075A1050085A73
:10177E001150095A12500A5A13500B5A14500C5A3F
:10178E0015500D5A1680D89015321432133212326B
:10179E00113210320F320E321E2E99EF0BF016C090
:1017AE0006F017C007F018C008F019C009F01AC0EB
:1017BE000AF01BC00BF01CC00CF01DC00DF0120087
:1017CE000F013B913B9395809582929089806C504E
:1017DE00F00B08096C6E130E6E6E6C8A340E076E6B
:1017EE00F20EE82EFED7072EFCD76B806BB002EF01
:1017FE000CF004EF0CF0FDEF0BF0A49E7C0E85ECCC
:10180E000FF0800E85EC0FF0380E85EC0FF0800E89
:10181E0085EC0FF0390E85EC0FF0800E85EC0FF095
:10182E00170E85EC0FF0800E85EC0FF07A0E85EC1E
:10183E000FF0800E85EC0FF05E0E85EC0FF0800E33
:10184E0085EC0FF06B0E85EC0FF0800E85EC0FF033
:10185E000C0E85EC0FF0800E85EC0FF0010E85EC72
:10186E000FF0800E85EC0FF0060E85EC0FF0800E5B
:10187E0085EC0FF0020E85EC0FF06B846BB44AEF23
:10188E000CF04CEF0CF045EF0CF0340E076EF20E30
:10189E00E82EFED7072EFCD712000E500F10101098
:1018AE0011101210131014101510D8B461EF0CF0A3
:1018BE0063EF0CF0ABEF0CF0010E166E71EF0CF047
:1018CE00D8900E360F3610361136123613361436B1
:1018DE001536162A15AE76EF0CF078EF0CF067EF92
:1018EE000CF00E50065C0F5007581050085811504F
:1018FE00095812500A5813500B5814500C581550C2
:10190E000D58D8A08DEF0CF08FEF0CF09FEF0CF070
:10191E000E50065E0F50075A1050085A1150095AB1
:10192E0012500A5A13500B5A14500C5A15500D5A85
:10193E00D8901532143213321232113210320F3255
:10194E000E32162E78EF0CF006C006F007C007F028
:10195E0008C008F009C009F00AC00AF00BC00BF06D
:10196E000CC00CF00DC00DF0120008500910D8B4C8
:10197E00C3EF0CF0C5EF0CF0CEEF0CF008500910D1
:10198E00D8A4CCEF0CF0CEEF0CF0D3EF0CF0065049
:10199E009AEC0FF020EF0DF020EE09F00850D9264A
:1019AE000950DA22DE50DE10D8B4E0EF0CF0E2EF90
:1019BE000CF0FDEF0CF020EE09F00850D92609507E
:1019CE00DA2210EE03F00850E1260950E222DE5032
:1019DE00E65CE650800A0E6EDE50800A0E58D8B0D5
:1019EE00FBEF0CF0FDEF0CF020EF0DF020EE03F00E
:1019FE000850D9260950DA22DECF0AF0DDCF0BF0DF
:101A0E0008C0D9FF09C0DAFFDECF0CF0DDCF0DF034
:101A1E000A500C24D96E0B500D20DA6E06C0DFFF73
:101A2E0020EE03F00850D9260950DA22DE2A000EE5
:101A3E00DD2212000001F1A127EF0DF029EF0DF0CC
:101A4E0033EF0DF018C00FF019C010F016C011F0E2
:101A5E0017C012F048EC0FF01BBE38EF0DF03AEF46
:101A6E000DF040EF0DF01AC01FF01BC020F044EF38
:101A7E000DF0000E206E000E1F6E000E1E6E000E7C
:101A8E001D6E56EF0DF0000E076E200E066E16C080
:101A9E0008F017C009F0BCEC0CF01D4A1E2A1F50AE
:101AAE001D5C1E50800A1C6E2050800A1C58D8A047
:101ABE0063EF0DF065EF0DF04AEF0DF00001F1B19F
:101ACE006BEF0DF06DEF0DF077EF0DF018C00FF01E
:101ADE0019C010F016C011F017C012F048EC0FF03C
:101AEE0018C006F019C007F06AEC0FF01F5006245C
:101AFE00166E20500720176E1200000E1D6E19BEB6
:101B0E008DEF0DF08BEF0DF093EF0DF0186C191E9D
:101B1E00D8B0192A010E1D6E1BBE9AEF0DF098EF6C
:101B2E000DF09EEF0DF01A6C1B1ED8B01B2A1A502A
:101B3E001B10D8B4A5EF0DF0A7EF0DF0CBEF0DF005
:101B4E00010E1C6EAFEF0DF0D8901A361B361C2A04
:101B5E001BAEB4EF0DF0B6EF0DF0ABEF0DF01A506B
:101B6E00185C1B501958D8A0BFEF0DF0C1EF0DF047
:101B7E00C5EF0DF01A50185E1B50195AD8901B3233
:101B8E001A321C2EB6EF0DF01D50D8B4D1EF0DF059
:101B9E00D3EF0DF0D7EF0DF0186C191ED8B0192A2F
:101BAE0018C018F019C019F01200096E6B806BB0D6
:101BBE00E3EF0DF0E5EF0DF0DEEF0DF0A49E7C0EE1
:101BCE0085EC0FF0800E85EC0FF00904D8A4F2EF2F
:101BDE000DF0F4EF0DF0F9EF0DF0800E85EC0FF037
:101BEE0005EF0EF0020E0918D8A400EF0EF002EF6A
:101BFE000EF005EF0EF0C00E85EC0FF0400E85ECEA
:101C0E000FF0000E0A6E0A500724D96E000E08203F
:101C1E00DA6EDF5085EC0FF00A2A0F0E0A641AEF07
:101C2E000EF01CEF0EF00AEF0EF06B846BB422EF89
:101C3E000EF024EF0EF01DEF0EF01200016E01B04B
:101C4E002BEF0EF02EEF0EF08C842FEF0EF08C9407
:101C5E0001B234EF0EF037EF0EF08C8638EF0EF047
:101C6E008C9601B43DEF0EF040EF0EF08B8841EFF5
:101C7E000EF08B9801B646EF0EF049EF0EF08C8801
:101C8E004AEF0EF08C9801B84FEF0EF052EF0EF0B7
:101C9E008C8A53EF0EF08C9A01BA58EF0EF05BEF70
:101CAE000EF08C8C5CEF0EF08C9C1200F4C006F0E3
:101CBE00F5C007F0F6C008F0F7C009F02D0E0A6E59
:101CCE007F0E0B6E950E0C6E4C0E0D6E94EC0EF090
:101CDE00010E06240001F46F000E0720F56F000EB2
:101CEE000820F66F000E0920F76FF4C014F0F5C04F
:101CFE0015F0F6C016F0F7C017F0120E8CEF0EF0BE
:101D0E00D8901732163215321432E82E87EF0EF0B5
:101D1E0014C012F015C013F01200000E0E6E000E5D
:101D2E000F6E000E106E000E116E06A0A1EF0EF0DB
:101D3E00A3EF0EF0ABEF0EF00A500E260B500F2253
:101D4E000C5010220D501122D8900A360B360C363C
:101D5E000D36D89009320832073206320650071077
:101D6E0008100910D8A4BEEF0EF0C0EF0EF09CEFD5
:101D7E000EF00EC006F00FC007F010C008F011C034
:101D8E0009F0120062C066F063C067F0000E000139
:101D9E00EC6F000EEB6FE7EF0EF060C041F061C02C
:101DAE0042F0660E436E000E446E64C045F065C090
:101DBE0046F0A6EC0AF041500001EB274250EC230E
:101DCE0066C0F6FF67C0F7FF0800F5500009D8A4FB
:101DDE00F3EF0EF0F5EF0EF0D4EF0EF0EBC060F077
:101DEE00ECC061F012006C0E00016E6F000E6F6F92
:101DFE0068C070F069C071F0000E746F000E736FE2
:101E0E00000E7A6F000E796F700E606F000E616FAC
:101E1E006AC062F06BC063F06E0E646F000E656F89
:101E2E00C9EC0EF0000173516825D96E7451692109
:101E3E00DA6E000EDF6E1200300EF66E1F0EF76EAB
:101E4E00000EF86E00EE53F010EE04F00900F5CF20
:101E5E00EEFFE550E150FAE101EE00F0200EEE6AE1
:101E6E00E806FDE100EEEBF00D0EEE6AE806FDE190
:101E7E00586A576A59905992000EF86E000157EF42
:101E8E0008F0000E156E000E146E59EF0FF013C011
:101E9E0006F0076A11C008F012C009F0BCEC0CF095
:101EAE00144A152A14500F24D96E15501020DA6ECC
:101EBE00DF50136E1350D8A467EF0FF069EF0FF0D9
:101ECE004EEF0FF0120006C008F007C009F072EFD7
:101EDE000FF0064A072A06C0D9FF07C0DAFFDF5007
:101EEE00D8A47CEF0FF07EEF0FF070EF0FF00850DC
:101EFE00065C066E09500758076E1200066E06C085
:101F0E006FFF6DB08DEF0FF08FEF0FF088EF0FF0CA
:101F1E00A4AE94EF0FF096EF0FF08FEF0FF0A49E9C
:081F2E001200FFFF24F4120071
:020000040020DA
:08000000FFFFFFFFFFFFFFFF00
:020000040030CA
:0E000000FF731F3CFFBF85FF0FC00FE00F40D6
:00000001FF
